:100000000C9462000C9421030C94FA020C948A0064
:100010000C948A000C948A000C948A000C948A0038
:100020000C948A000C948A000C948A000C948A0028
:100030000C948A000C948A000C948A000C948A0018
:100040000C94B0020C948A000C948A000C948A00E0
:100050000C948A000C948A000C948A000C948A00F8
:100060000C948A000C948A000000000024002700F1
:100070002A0000000000250028002B0000000000DE
:1000800023002600290004040404040404040202DA
:100090000202020203030303030301020408102007
:1000A0004080010204081020010204081020000012
:1000B0000008000201000003040700000000000027
:1000C0000000AC0511241FBECFEFD8E0DEBFCDBFCE
:1000D00011E0A0E0B1E0ECEAFDE002C005900D9275
:1000E000AA31B107D9F721E0AAE1B1E001C01D9220
:1000F000AE33B207E1F710E0C2E6D0E004C02197CA
:10010000FE010E94CE06C136D107C9F70E944803FE
:100110000C94D4060C94000080913C0190913D0118
:100120008230910538F0880F991F880F991F059725
:100130000197F1F70895833081F028F4813099F028
:100140008230A9F008958730A9F08830C9F0843052
:10015000B1F4809180008F7D03C0809180008F7703
:1001600080938000089584B58F7784BD089584B509
:100170008F7DFBCF8091B0008F778093B000089582
:100180008091B0008F7DF9CFCF93DF93282F30E09F
:10019000F901E255FF4F8491F901E656FF4FD491E2
:1001A000F901EA57FF4FC491CC23A1F081110E94BD
:1001B0009B00EC2FF0E0EE0FFF1FE458FF4FA591DE
:1001C000B491EC91ED2381E090E009F480E0DF91BF
:1001D000CF91089580E090E0FACF1F93CF93DF9303
:1001E000282F30E0F901E255FF4F8491F901E656DE
:1001F000FF4FD491F901EA57FF4FC491CC23A9F0E6
:10020000162F81110E949B00EC2FF0E0EE0FFF1FD4
:10021000EE58FF4FA591B4918FB7F894EC9111115E
:1002200008C0D095DE23DC938FBFDF91CF911F9163
:100230000895DE2BF8CFCF93DF9390E0FC01E656D4
:10024000FF4F24918A579F4FFC0184918823C9F066
:1002500090E0880F991FFC01E859FF4FA591B491D8
:10026000FC01EE58FF4FC591D49161110DC09FB7AD
:10027000F8948C91209582238C938881282328835D
:100280009FBFDF91CF910895623051F49FB7F894EA
:100290003C91822F809583238C93E8812E2BEFCF86
:1002A0008FB7F894EC912E2B2C938FBFEACFCF937E
:1002B000DF93C9E3D1E061E089810E941B010E94C4
:1002C0008C0060E088810E941B010E948C0060E02D
:1002D00089810E941B01DF91CF910C948C000F93B8
:1002E0001F93CF93DF93D82FC8E061E0809139014D
:1002F0000E941B010E948C000D2F10E060E0D0FFD7
:1003000061E080913A010E941B010E948C0060E034
:10031000809139010E941B010E948C001595079560
:10032000D02FC15011F761E0809139010E941B016B
:1003300060E080913A010E941B010E948C0060E005
:10034000809139010E941B010E948C0080913A012A
:100350000E94C400C82F811105C061E080913A015C
:100360000E941B010E948C0061E0809139010E9473
:100370001B010E948C0081E0C11101C080E0DF916F
:10038000CF911F910F91089561E080913A010E94F1
:100390001B010C948C000F931F93CF93DF938C0160
:1003A0000E94C40180E40E946F010E9457010E94D4
:1003B000C40180EC0E946F01E8010C5F1F4F89911E
:1003C0000E946F01C017D107D1F70E9457010E9408
:1003D000C40180913B018F7080580E946F01DF91B2
:1003E000CF911F910F910C9457013FB7F8948091D2
:1003F000350190913601A0913701B091380126B5B1
:10040000A89B05C02F3F19F00196A11DB11D3FBF4C
:10041000BA2FA92F982F8827BC01CD01620F711D1B
:10042000811D911D42E0660F771F881F991F4A9515
:10043000D1F708958F929F92AF92BF92CF92DF92A1
:10044000EF92FF926B017C010E94F5014B015C0170
:10045000C114D104E104F104B9F00E94F501681956
:1004600079098A099B09683E73408105910580F3EB
:1004700021E0C21AD108E108F10888EE880E83E075
:10048000981EA11CB11CE4CFFF90EF90DF90CF909D
:10049000BF90AF909F908F9008950895DC01ED91EB
:1004A000FD918081ED91FD919081ED91FD916C9197
:1004B00063708E2309F064609F2309F06860EBE6A7
:1004C000F2E0E60FF11D659565956D936D917D9157
:1004D0008D919D91099423C01AC012C016C010C0FE
:1004E0001EC009C014C013C006C019C009C00DC089
:1004F00007C00DC014C062507040804090400BC0D7
:10050000615070408040904006C06E5F01C06F5FD8
:100510007F4F8F4F9F4F9E938E937E936E93089540
:1005200080911A0190911B010C944E0280911C0144
:1005300090911D010C944E021F93CF93DF93EC0119
:10054000162F0E944006181739F0612FCE01DF9157
:10055000CF911F910C944806DF91CF911F91089580
:100560001F920F920FB60F9211242F933F938F93E8
:100570009F93AF93BF938091310190913201A091ED
:100580003301B09134013091300123E0230F2D3736
:1005900058F50196A11DB11D2093300180933101C2
:1005A00090933201A0933301B093340180913501CF
:1005B00090913601A0913701B09138010196A11DAB
:1005C000B11D8093350190933601A0933701B0930C
:1005D0003801BF91AF919F918F913F912F910F90D3
:1005E0000FBE0F901F90189526E8230F0296A11DAD
:1005F000B11DD2CF1F920F920FB60F9211242F93DD
:100600003F934F935F936F937F938F939F93AF939A
:10061000BF93EF93FF93E0910201F09103010995DD
:10062000FF91EF91BF91AF919F918F917F916F91CA
:100630005F914F913F912F910F900FBE0F901F90A0
:1006400018951F920F920FB60F9211242F933F937C
:100650004F935F936F937F938F939F93AF93BF93CA
:10066000EF93FF93E0910001F09101010995FF9153
:10067000EF91BF91AF919F918F917F916F915F911A
:100680004F913F912F910F900FBE0F901F90189593
:10069000CF93DF9300D000D0CDB7DEB7789484B588
:1006A000826084BD84B5816084BD85B5826085BD6E
:1006B00085B5816085BD80916E00816080936E00FC
:1006C00010928100809181008260809381008091EE
:1006D000810081608093810080918000816080939F
:1006E00080008091B10084608093B1008091B0005F
:1006F00081608093B00080917A00846080937A005A
:1007000080917A00826080937A0080917A00816083
:1007100080937A0080917A00806880937A001092AA
:10072000C10062E084E00E941B018FE080933B01E6
:1007300061E08AE00E941B0160E08AE00E94ED0017
:1007400061E08BE00E941B0160E08BE00E94ED0005
:1007500061E08CE00E941B0160E08CE00E94ED00F3
:1007600090E080E00E944006182F8093230181E0F2
:1007700090E00E944006112309F473C01D3308F075
:100780001CE310932301882309F46DC08B3008F01B
:100790008AE0809322012FB7F894809131019091E3
:1007A0003201A0913301B09134012FBF80931E011B
:1007B00090931F01A0932001B09321019AE0A92EEC
:1007C000B12C26E0922E10E48BE5882E06E780916E
:1007D0002F01823008F049C0F89484E291E00E9431
:1007E0004E0260912B0170912C0180912D0190910E
:1007F0002E01789422E030E040E050E00E946A064A
:1008000069017A0184E00E94C4001C018FB7F8944A
:10081000409031015090320160903301709034016A
:100820008FBF90910801913009F040C040910401C0
:10083000509105016091060170910701C416D5061B
:10084000E606F706F9F0809123014C155D056E056B
:100850007F050CF04BC08F5F8C3348F480932301ED
:1008600009C011E08ECF81E094CFF894BACF2CE389
:1008700020932301C0920401D0920501E092060169
:10088000F0920701E09123018E2F90E099821A8364
:100890008A309105C4F51B83EF70F0E0E75FFE4FEF
:1008A00080818C83CE0101960E94CB01809108014A
:1008B000823009F054C040910401509105016091CB
:1008C000060170910701C416D506E606F70691F1F8
:1008D000809122014C155D056E057F050CF0FFC06F
:1008E0008F5F8A30E0F4809322011CC0C416D506C5
:1008F000E606F7060CF0BECF8150823008F0AECF8E
:1009000090932301B7CFB5010E9456066F70E62F72
:10091000F0E0E75FFE4F20812B83FC01BFCF3AE080
:1009200030932201C0920401D0920501E0920601A9
:10093000F0920701E09122018E2F90E089821A83C4
:100940008A3091050CF0D7C01B83EF70F0E0E75FB1
:10095000FE4F80818C83CE0101960E94CB0123281B
:1009600009F056C068EE73E080E090E00E941A0241
:1009700084E00E94C40020910801892B09F0DFC0A7
:10098000213009F5F09023018F2D90E099820A83A0
:100990008A3091050CF0BBC00B83EF2DEF70F0E0B7
:1009A000E75FFE4F80818C83CE0101960E94CB01D0
:1009B0006F2D90E080E00E949C0268EE73E080E082
:1009C00090E00E941A0280910801823009F5F090AF
:1009D00022018F2D90E089820A838A3091050CF0E4
:1009E000A2C00B83EF2DEF70F0E0E75FFE4F808138
:1009F0008C83CE0101960E94CB016F2D81E090E0A7
:100A00000E949C0268EE73E080E090E00E941A026F
:100A100080911E0190911F01A0912001B0912101B0
:100A2000481A590A6A0A7B0A2091230130E0A0E69D
:100A3000BAEE0E948906641575058605970508F0CB
:100A400046C061E08AE00E94ED008091220128EE1C
:100A500033E0829FB001839F700D1124072E000C9C
:100A6000880B990B0E941A0260E08AE00E94ED0058
:100A700061E08CE00E94ED0068E873E180E090E0C6
:100A80000E941A0260E08CE00E94ED0061E08BE0C1
:100A90000E94ED0068EE73E080E090E00E941A0290
:100AA00060E08BE00E94ED002FB7F8948091310157
:100AB00090913201A0913301B09134012FBF809306
:100AC0001E0190931F01A0932001B093210180E0AB
:100AD00090E0892B09F47BCE0E94000075CEC416ED
:100AE000D506E606F7060CF01DCF8150823008F0DF
:100AF000FACE81E0F8CEB5010E9456066F70E62F5F
:100B0000F0E0E75FFE4F20812B83FC0120CFB50191
:100B10000E9456066F70E62FF0E0E75FFE4F2081DF
:100B20002B83FC013DCFB5010E9456066F70E62F66
:100B3000F0E0E75FFE4F20812B83FC0156CF213090
:100B400021F492E0909308015DCF223009F060CF4C
:100B500021E02093080156CFCF93DF9362E083E03A
:100B60000E941B0162E082E00E941B01E9E8F0E0C4
:100B7000E491F0E0EE0FFF1FE458FF4FA591B49110
:100B8000B0932501A0932401EDE9F0E04491409356
:100B90002801E8E8F0E0E491F0E0EE0FFF1FE458F0
:100BA000FF4FC591D491D0932701C0932601ECE962
:100BB000F0E0E491E093290110922B0110922C01B6
:100BC00010922D0110922E012BE33FE1C9010197F4
:100BD000F1F79C91842F892391E009F490E08881BA
:100BE000E82309F0926024E231E090932A013093E7
:100BF0001D0120931C0186E992E0909303018093EC
:100C0000020180916900837F846080936900E99A82
:100C100081E080932F0130931B0120931A0180E91A
:100C200092E09093010180930001809169008C7F94
:100C3000816080936900E89A82E080932F0187E0C9
:100C40008093390186E080933A0184E690E09093A6
:100C50003D0180933C0160E087E00E941B0160E061
:100C600080913A010E941B0160E0809139010E944D
:100C7000ED0060E080913A01DF91CF910C94ED009E
:100C8000F999FECF92BD81BDF89A992780B5089554
:100C9000262FF999FECF1FBA92BD81BD20BD0FB698
:100CA000F894FA9AF99A0FBE0196089597FB072EC9
:100CB00016F4009407D077FD09D00E94980607FC2F
:100CC00005D03EF4909581959F4F0895709561955C
:100CD0007F4F0895052E97FB1EF400940E94810615
:100CE00057FD07D00E94AC0607FC03D04EF40C94CD
:100CF000810650954095309521953F4F4F4F5F4F5E
:100D0000089590958095709561957F4F8F4F9F4F77
:100D10000895A29FB001B39FC001A39F700D811DD4
:100D20001124911DB29F700D811D1124911D0895F4
:100D3000AA1BBB1B51E107C0AA1FBB1FA617B70701
:100D400010F0A61BB70B881F991F5A95A9F780951D
:100D50009095BC01CD010895A1E21A2EAA1BBB1BE0
:100D6000FD010DC0AA1FBB1FEE1FFF1FA217B30777
:100D7000E407F50720F0A21BB30BE40BF50B661F8D
:100D8000771F881F991F1A9469F760957095809551
:100D900090959B01AC01BD01CF010895EE0FFF1F9F
:0C0DA0000590F491E02D0994F894FFCF29
:100DAC004D024D0219FCFFFF013F065B4F666D7D46
:0A0DBC00077F6F777C395E797100C4
:00000001FF
