:100000000C9462000C94F8020C94D1020C948A00B7
:100010000C948A000C948A000C948A000C948A0038
:100020000C948A000C948A000C948A000C948A0028
:100030000C948A000C948A000C948A000C948A0018
:100040000C9487020C948A000C948A000C948A0009
:100050000C948A000C948A000C948A000C948A00F8
:100060000C948A000C948A000000000024002700F1
:100070002A0000000000250028002B0000000000DE
:1000800023002600290004040404040404040202DA
:100090000202020203030303030301020408102007
:1000A0004080010204081020010204081020000012
:1000B0000008000201000003040700000000000027
:1000C0000000D00311241FBECFEFD8E0DEBFCDBFAC
:1000D00011E0A0E0B1E0E2E8F9E002C005900D9285
:1000E000A431B107D9F721E0A4E1B1E001C01D922C
:1000F000A233B207E1F710E0C2E6D0E004C02197D6
:10010000FE010E94B904C136D107C9F70E941F033E
:100110000C94BF040C940000809130019091310147
:100120008230910538F0880F991F880F991F059725
:100130000197F1F70895833081F028F4813099F028
:100140008230A9F008958730A9F08830C9F0843052
:10015000B1F4809180008F7D03C0809180008F7703
:1001600080938000089584B58F7784BD089584B509
:100170008F7DFBCF8091B0008F778093B000089582
:100180008091B0008F7DF9CF1F93CF93DF93282FFD
:1001900030E0F901E255FF4F8491F901E656FF4F37
:1001A000D491F901EA57FF4FC491CC23A9F0162F3F
:1001B00081110E949B00EC2FF0E0EE0FFF1FEE5824
:1001C000FF4FA591B4918FB7F894EC91111108C02D
:1001D000D095DE23DC938FBFDF91CF911F910895DF
:1001E000DE2BF8CFCF93DF9390E0FC01E656FF4F74
:1001F00024918A579F4FFC0184918823C9F090E095
:10020000880F991FFC01E859FF4FA591B491FC019B
:10021000EE58FF4FC591D49161110DC09FB7F8946E
:100220008C91209582238C938881282328839FBFDB
:10023000DF91CF910895623051F49FB7F8943C91CB
:10024000822F809583238C93E8812E2BEFCF8FB75D
:10025000F894EC912E2B2C938FBFEACFCF93DF93A2
:10026000CDE2D1E061E089810E94F2000E948C0021
:1002700060E088810E94F2000E948C0060E0898129
:100280000E94F200DF91CF910C948C000F931F938A
:10029000CF93DF93D82FC8E061E080912D010E94B9
:1002A000F2000E948C000D2F10E060E0D0FF61E0B2
:1002B00080912E010E94F2000E948C0060E08091EB
:1002C0002D010E94F2000E948C0015950795D02FF9
:1002D000C15011F761E080912D010E94F20060E0B1
:1002E00080912E010E94F2000E948C0060E08091BB
:1002F0002D010E94F2000E948C0020912E0130E01E
:10030000F901E255FF4F8491F901E656FF4FD49170
:10031000F901EA57FF4FC491CC2339F181110E94B2
:100320009B00EC2FF0E0EE0FFF1FE458FF4FA5916C
:10033000B491EC91ED23C1E009F4C0E0C11105C016
:1003400061E080912E010E94F2000E948C0061E029
:1003500080912D010E94F2000E948C008C2F8170F0
:10036000DF91CF911F910F910895C0E0E9CF61E037
:1003700080912E010E94F2000C948C000895DC0103
:10038000ED91FD918081ED91FD919081ED91FD9137
:100390006C9163708E2309F064609F2309F068609C
:1003A000ECEDF1E0E60FF11D659565956D936D91AE
:1003B0007D918D919D91099423C01AC012C016C0E1
:1003C00010C01EC009C014C013C006C019C009C0A7
:1003D0000DC007C00DC014C06250704080409040F6
:1003E0000BC0615070408040904006C06E5F01C0FD
:1003F0006F5F7F4F8F4F9F4F9E938E937E936E9331
:10040000089580911401909115010C94BF01809181
:100410001601909117010C94BF01DF92EF92FF92A9
:100420000F931F93CF93DF9300D000D0CDB7DEB7EB
:100430000097A1F519821A821B828FE38C830E9498
:10044000B70180E40E9446010E942E010E94B7017C
:1004500080EC0E94460189810E9446018A810E94A7
:1004600046018B810E9446018C810E9446010E94B8
:100470002E010E94B70180912F018F7080580E9439
:1004800046010F900F900F900F90DF91CF911F9129
:100490000F91FF90EF90DF900C942E019C0197FF3D
:1004A00004C022273327281B390B492F441F442718
:1004B000441FFE0131967E0183E0E81AF1080AE04C
:1004C00010E080E4D82EC901B8010E946404582FBE
:1004D000811109C02115310531F41382442369F0DB
:1004E000D38240E00AC08C5F9E4FDC018C918383F5
:1004F000511103C02115310589F3C901B8010E94CA
:1005000064049B013197EE16FF06E9F698CF1F921F
:100510000F920FB60F9211242F933F938F939F93B7
:10052000AF93BF938091290190912A01A0912B0153
:10053000B0912C013091280123E0230F2D3758F57D
:100540000196A11DB11D209328018093290190934C
:100550002A01A0932B01B0932C018091240190914A
:100560002501A0912601B09127010196A11DB11D81
:100570008093240190932501A0932601B093270135
:10058000BF91AF919F918F913F912F910F900FBE8F
:100590000F901F90189526E8230F0296A11DB11DFC
:1005A000D2CF1F920F920FB60F9211242F933F9329
:1005B0004F935F936F937F938F939F93AF93BF936B
:1005C000EF93FF93E0910201F09103010995FF91F0
:1005D000EF91BF91AF919F918F917F916F915F91BB
:1005E0004F913F912F910F900FBE0F901F90189534
:1005F0001F920F920FB60F9211242F933F934F9398
:100600005F936F937F938F939F93AF93BF93EF937A
:10061000FF93E0910001F09101010995FF91EF91A5
:10062000BF91AF919F918F917F916F915F914F910A
:100630003F912F910F900FBE0F901F9018957894B7
:1006400084B5826084BD84B5816084BD85B58260D7
:1006500085BD85B5816085BD80916E008160809388
:100660006E001092810080918100826080938100F1
:100670008091810081608093810080918000816001
:10068000809380008091B10084608093B10080915C
:10069000B00081608093B00080917A008460809384
:1006A0007A0080917A00826080937A0080917A004B
:1006B000816080937A0080917A00806880937A00CC
:1006C0001092C10062E084E00E94F2008FE080930B
:1006D0002F0161E08AE00E94F20060E08AE00E945F
:1006E000C40061E08BE00E94F20060E08BE00E94B9
:1006F000C40061E08CE00E94F20060E08CE00E94A7
:10070000C40082E0882E912CA12CB12CC0E0D0E056
:1007100080912301823008F041C0F89488E191E093
:100720000E94BF0160911F01709120018091210101
:10073000909122017894A50194010E9478046901A6
:100740007A0186E0C816D104E104F1040CF161E0FD
:100750008AE00E94C400C6010E940D028BE0C81608
:10076000D104E104F104A4F061E08BE00E94C40034
:10077000C6010E940D0280E1C816D104E104F10413
:100780003CF061E08CE00E94C400C6010E940D02B2
:10079000209709F4BDCF0E940000BACFF894C2CFD1
:1007A000CF93DF9362E083E00E94F20062E082E098
:1007B0000E94F200E9E8F0E0E491F0E0EE0FFF1FA4
:1007C000E458FF4FA591B491B0931901A09318017B
:1007D000EDE9F0E0449140931C01E8E8F0E0E49199
:1007E000F0E0EE0FFF1FE458FF4FC591D491D09376
:1007F0001B01C0931A01ECE9F0E0E491E0931D01C4
:1008000010921F01109220011092210110922201DA
:100810002BE33FE1C9010197F1F79C91842F8923D4
:1008200091E009F490E08881E82309F0926028E1E2
:1008300031E090931E01309317012093160187E059
:1008400092E0909303018093020180916900837F7D
:10085000846080936900E99A81E08093230130935A
:1008600015012093140181E092E09093010180939F
:100870000001809169008C7F816080936900E89A13
:1008800082E08093230187E080932D0186E08093AE
:100890002E0184E690E0909331018093300160E076
:1008A00087E00E94F20060E080912E010E94F20039
:1008B00060E080912D010E94C40060E080912E01D3
:1008C000DF91CF910C94C400AA1BBB1B51E107C060
:1008D000AA1FBB1FA617B70710F0A61BB70B881FD0
:1008E000991F5A95A9F780959095BC01CD0108955F
:1008F000052E97FB1EF400940E948F0457FD07D02D
:100900000E94970407FC03D04EF40C948F0450957A
:100910004095309521953F4F4F4F5F4F08959095EB
:100920008095709561957F4F8F4F9F4F0895A1E2FD
:100930001A2EAA1BBB1BFD010DC0AA1FBB1FEE1F59
:10094000FF1FA217B307E407F50720F0A21BB30BA4
:10095000E40BF50B661F771F881F991F1A9469F720
:1009600060957095809590959B01AC01BD01CF017C
:100970000895EE0FFF1F0590F491E02D0994F8946F
:02098000FFCFA7
:10098200BE01BE013F065B4F666D7D077F6F777CC0
:04099200395E7971E0
:00000001FF
