:100000000C9462000C94E9020C94C2020C948A00D5
:100010000C948A000C948A000C948A000C948A0038
:100020000C948A000C948A000C948A000C948A0028
:100030000C948A000C948A000C948A000C948A0018
:100040000C9478020C948A000C948A000C948A0018
:100050000C948A000C948A000C948A000C948A00F8
:100060000C948A000C948A000000000024002700F1
:100070002A000000000023002600290000000000E4
:10008000250028002B0004040404040404040202D4
:100090000202020203030303030301020408102007
:1000A0004080010204081020010204081020000012
:1000B0000008000201000003040700000000000027
:1000C0000000C20311241FBECFEFD8E0DEBFCDBFBA
:1000D00011E0A0E0B1E0E0EFF8E002C005900D9281
:1000E000A431B107D9F721E0A4E1B1E001C01D922C
:1000F000A333B207E1F710E0C2E6D0E004C02197D5
:10010000FE010E947004C136D107C9F70E94100396
:100110000C9476040C94000080913101909132018E
:100120008230910538F0880F991F880F991F059725
:100130000197F1F70895833081F028F4813099F028
:100140008230A9F008958730A9F08830C9F0843052
:10015000B1F4809180008F7D03C0809180008F7703
:1001600080938000089584B58F7784BD089584B509
:100170008F7DFBCF8091B0008F778093B000089582
:100180008091B0008F7DF9CFCF93DF93282F30E09F
:10019000F901E255FF4F8491F901E656FF4FD491E2
:1001A000F901EA57FF4FC491CC2391F081110E94CD
:1001B0009B00EC2FF0E0EE0FFF1FE458FF4FA591DE
:1001C000B4918FB7F894EC91D095DE23DC938FBF78
:1001D000DF91CF910895CF93DF9390E0FC01E65635
:1001E000FF4F24918A579F4FFC0184918823C9F0C7
:1001F00090E0880F991FFC01E859FF4FA591B49139
:10020000FC01E458FF4FC591D49161110DC09FB717
:10021000F8948C91209582238C93888128232883BD
:100220009FBFDF91CF910895623051F49FB7F8944A
:100230003C91822F809583238C93E8812E2BEFCFE6
:100240008FB7F894EC912E2B2C938FBFEACFCF93DE
:10025000DF93CEE2D1E061E089810E94EB000E9451
:100260008C0060E088810E94EB000E948C0060E0BE
:1002700089810E94EB00DF91CF910C948C000F9349
:100280001F93CF93DF93D82FC8E061E080912E01B8
:100290000E94EB000E948C000D2F10E060E0D0FF68
:1002A00061E080912F010E94EB000E948C0060E0D1
:1002B00080912E010E94EB000E948C0015950795FD
:1002C000D02FC15011F761E080912E010E94EB0008
:1002D00060E080912F010E94EB000E948C0060E0A2
:1002E00080912E010E94EB000E948C0020912F0132
:1002F00030E0F901E255FF4F8491F901E656FF4FD6
:10030000D491F901EA57FF4FC491CC2339F18111FF
:100310000E949B00EC2FF0E0EE0FFF1FEE58FF4F06
:10032000A591B491EC91ED23C1E009F4C0E0C111B5
:1003300005C061E080912F010E94EB000E948C00BB
:1003400061E080912E010E94EB000E948C008C2FB6
:100350008170DF91CF911F910F910895C0E0E9CF97
:1003600061E080912F010E94EB000C948C000895B5
:10037000DC01ED91FD918081ED91FD919081ED91F8
:10038000FD916C9163708E2309F064609F2309F0E6
:100390006860E5EDF1E0E60FF11D659565956D93FB
:1003A0006D917D918D919D91099423C01AC012C0C9
:1003B00016C010C01EC009C014C013C006C019C0AA
:1003C00009C00DC007C00DC014C06250704080400D
:1003D00090400BC0615070408040904006C06E5FFE
:1003E00001C06F5F7F4F8F4F9F4F9E938E937E9381
:1003F0006E93089580911401909115010C94B801A9
:1004000080911601909117010C94B801DF92EF9240
:10041000FF920F931F93CF93DF9300D000D0CDB7FF
:10042000DEB79B0140E087FF02C0819541E02115C6
:100430003105A1F519821A821B828FE38C830E94F9
:10044000B00180E40E943F010E9427010E94B00198
:1004500080EC0E943F0189810E943F018A810E94B5
:100460003F018B810E943F018C810E943F010E94CD
:1004700027010E94B001809130018F7080580E9446
:100480003F010F900F900F900F90DF91CF911F9130
:100490000F91FF90EF90DF900C942701FE013196B1
:1004A0007E0193E0E91AF108082F880F110B80E410
:1004B000D82EC901B8010E945C04582F811109C0CF
:1004C0002115310531F41382442361F0D38240E0D9
:1004D00009C08C5F9E4FDC018C918383511102C057
:1004E000232B91F39B013197EE16FF0611F7A7CF4F
:1004F0001F920F920FB60F9211242F933F938F9359
:100500009F93AF93BF9380912A0190912B01A0916B
:100510002C01B0912D013091290123E0230F2D37BB
:1005200058F50196A11DB11D2093290180932A0140
:1005300090932B01A0932C01B0932D018091250164
:1005400090912601A0912701B09128010196A11D4B
:10055000B11D8093250190932601A0932701B093AC
:100560002801BF91AF919F918F913F912F910F9053
:100570000FBE0F901F90189526E8230F0296A11D1D
:10058000B11DD2CF1F920F920FB60F9211242F934D
:100590003F934F935F936F937F938F939F93AF930B
:1005A000BF93EF93FF93E0910201F091030109954E
:1005B000FF91EF91BF91AF919F918F917F916F913B
:1005C0005F914F913F912F910F900FBE0F901F9011
:1005D00018951F920F920FB60F9211242F933F93ED
:1005E0004F935F936F937F938F939F93AF93BF933B
:1005F000EF93FF93E0910001F09101010995FF91C4
:10060000EF91BF91AF919F918F917F916F915F918A
:100610004F913F912F910F900FBE0F901F90189503
:10062000789484B5826084BD84B5816084BD85B5CD
:10063000826085BD85B5816085BD80916E008160D9
:1006400080936E001092810080918100826080937F
:100650008100809181008160809381008091800081
:100660008160809380008091B10084608093B100AC
:100670008091B00081608093B00080917A008460A6
:1006800080937A0080917A00826080937A008091D2
:100690007A00816080937A0080917A0080688093EC
:1006A0007A001092C10062E084E00E94EB008FE0CB
:1006B0008093300161E08AE00E94EB008AE00E94B2
:1006C000C40061E08BE00E94EB008BE00E94C4005C
:1006D00061E08CE00E94EB008CE00E94C40090E09E
:1006E00080E00E945404882309F448C08D3308F048
:1006F0008CE380931801F89490E0B0E0A0E0809340
:10070000200190932101A0932201B09323017894BA
:100710006091180170E08AE00E940602C0E0D0E01B
:1007200080912401823060F5F89489E191E00E9483
:10073000B8018091200190912101A0912201B091F6
:10074000230178944091180150E070E060E0481770
:1007500059076A077B0769F09C01BC0197FF04C039
:1007600066277727681B790B8AE037FD86EF0E94A2
:1007700006022097A9F20E940000D2CF81E0B9CFF3
:10078000F894D7CFCF93DF9362E083E00E94EB0031
:1007900062E082E00E94EB00E9E8F0E0E491F0E042
:1007A000EE0FFF1FEE58FF4FA591B491B0931A01C1
:1007B000A0931901EDE9F0E0449140931D01E8E8B0
:1007C000F0E0E491F0E0EE0FFF1FEE58FF4FC5910F
:1007D000D491D0931C01C0931B01ECE9F0E0E491AB
:1007E000E0931E011092200110922101109222012B
:1007F000109223012BE33FE1C9010197F1F79C918E
:10080000842F892391E009F490E08881E82309F09E
:10081000926029E131E090931F01309317012093FA
:10082000160180E092E09093030180930201809191
:100830006900837F846080936900E99A81E08093F6
:10084000240130931501209314018AEF91E09093D5
:10085000010180930001809169008C7F8160809309
:100860006900E89A82E08093240187E080932E015A
:1008700086E080932F0184E690E09093320180938C
:10088000310160E087E00E94EB0060E080912F0181
:100890000E94EB0080912E010E94C40080912F01E4
:1008A000DF91CF910C94C400F999FECF92BD81BD28
:1008B000F89A992780B50895AA1BBB1B51E107C080
:1008C000AA1FBB1FA617B70710F0A61BB70B881FE0
:1008D000991F5A95A9F780959095BC01CD0108956F
:1008E000EE0FFF1F0590F491E02D0994F894FFCFCF
:1008F000B701B7013F065B4F666D7D077F6F777C61
:04090000395E797172
:00000001FF
