:100000000C9462000C9421030C94FA020C948A0064
:100010000C948A000C948A000C948A000C948A0038
:100020000C948A000C948A000C948A000C948A0028
:100030000C948A000C948A000C948A000C948A0018
:100040000C94B0020C948A000C948A000C948A00E0
:100050000C948A000C948A000C948A000C948A00F8
:100060000C948A000C948A000000000024002700F1
:100070002A0000000000250028002B0000000000DE
:1000800023002600290004040404040404040202DA
:100090000202020203030303030301020408102007
:1000A0004080010204081020010204081020000012
:1000B0000008000201000003040700000000000027
:1000C00000008D0611241FBECFEFD8E0DEBFCDBFEC
:1000D00011E0A0E0B1E0EEE6FFE002C005900D9275
:1000E000AA31B107D9F721E0AAE1B1E001C01D9220
:1000F000AF33B207E1F710E0C2E6D0E004C02197C9
:10010000FE010E94AF07C136D107C9F70E9448031C
:100110000C94B5070C94000080913D0190913E0134
:100120008230910538F0880F991F880F991F059725
:100130000197F1F70895833081F028F4813099F028
:100140008230A9F008958730A9F08830C9F0843052
:10015000B1F4809180008F7D03C0809180008F7703
:1001600080938000089584B58F7784BD089584B509
:100170008F7DFBCF8091B0008F778093B000089582
:100180008091B0008F7DF9CFCF93DF93282F30E09F
:10019000F901E255FF4F8491F901E656FF4FD491E2
:1001A000F901EA57FF4FC491CC23A1F081110E94BD
:1001B0009B00EC2FF0E0EE0FFF1FE458FF4FA591DE
:1001C000B491EC91ED2381E090E009F480E0DF91BF
:1001D000CF91089580E090E0FACF1F93CF93DF9303
:1001E000282F30E0F901E255FF4F8491F901E656DE
:1001F000FF4FD491F901EA57FF4FC491CC23A9F0E6
:10020000162F81110E949B00EC2FF0E0EE0FFF1FD4
:10021000EE58FF4FA591B4918FB7F894EC9111115E
:1002200008C0D095DE23DC938FBFDF91CF911F9163
:100230000895DE2BF8CFCF93DF9390E0FC01E656D4
:10024000FF4F24918A579F4FFC0184918823C9F066
:1002500090E0880F991FFC01E859FF4FA591B491D8
:10026000FC01EE58FF4FC591D49161110DC09FB7AD
:10027000F8948C91209582238C938881282328835D
:100280009FBFDF91CF910895623051F49FB7F894EA
:100290003C91822F809583238C93E8812E2BEFCF86
:1002A0008FB7F894EC912E2B2C938FBFEACFCF937E
:1002B000DF93CAE3D1E061E089810E941B010E94C3
:1002C0008C0060E088810E941B010E948C0060E02D
:1002D00089810E941B01DF91CF910C948C000F93B8
:1002E0001F93CF93DF93D82FC8E061E080913A014C
:1002F0000E941B010E948C000D2F10E060E0D0FFD7
:1003000061E080913B010E941B010E948C0060E033
:1003100080913A010E941B010E948C00159507955F
:10032000D02FC15011F761E080913A010E941B016A
:1003300060E080913B010E941B010E948C0060E004
:1003400080913A010E941B010E948C0080913B0128
:100350000E94C400C82F811105C061E080913B015B
:100360000E941B010E948C0061E080913A010E9472
:100370001B010E948C0081E0C11101C080E0DF916F
:10038000CF911F910F91089561E080913B010E94F0
:100390001B010C948C000F931F93CF93DF938C0160
:1003A0000E94C40180E40E946F010E9457010E94D4
:1003B000C40180EC0E946F01E8010C5F1F4F89911E
:1003C0000E946F01C017D107D1F70E9457010E9408
:1003D000C40180913C018F7080580E946F01DF91B1
:1003E000CF911F910F910C9457013FB7F8948091D2
:1003F000360190913701A0913801B091390126B5AD
:10040000A89B05C02F3F19F00196A11DB11D3FBF4C
:10041000BA2FA92F982F8827BC01CD01620F711D1B
:10042000811D911D42E0660F771F881F991F4A9515
:10043000D1F708958F929F92AF92BF92CF92DF92A1
:10044000EF92FF926B017C010E94F5014B015C0170
:10045000C114D104E104F104B9F00E94F501681956
:1004600079098A099B09683E73408105910580F3EB
:1004700021E0C21AD108E108F10888EE880E83E075
:10048000981EA11CB11CE4CFFF90EF90DF90CF909D
:10049000BF90AF909F908F9008950895DC01ED91EB
:1004A000FD918081ED91FD919081ED91FD916C9197
:1004B00063708E2309F064609F2309F06860EBE6A7
:1004C000F2E0E60FF11D659565956D936D917D9157
:1004D0008D919D91099423C01AC012C016C010C0FE
:1004E0001EC009C014C013C006C019C009C00DC089
:1004F00007C00DC014C062507040804090400BC0D7
:10050000615070408040904006C06E5F01C06F5FD8
:100510007F4F8F4F9F4F9E938E937E936E93089540
:1005200080911A0190911B010C944E0280911C0144
:1005300090911D010C944E021F93CF93DF93EC0119
:10054000162F0E942107181739F0612FCE01DF9175
:10055000CF911F910C942907DF91CF911F9108959E
:100560001F920F920FB60F9211242F933F938F93E8
:100570009F93AF93BF938091320190913301A091EB
:100580003401B09135013091310123E0230F2D3733
:1005900058F50196A11DB11D2093310180933201C0
:1005A00090933301A0933401B093350180913601CB
:1005B00090913701A0913801B09139010196A11DA8
:1005C000B11D8093360190933701A0933801B09309
:1005D0003901BF91AF919F918F913F912F910F90D2
:1005E0000FBE0F901F90189526E8230F0296A11DAD
:1005F000B11DD2CF1F920F920FB60F9211242F93DD
:100600003F934F935F936F937F938F939F93AF939A
:10061000BF93EF93FF93E0910201F09103010995DD
:10062000FF91EF91BF91AF919F918F917F916F91CA
:100630005F914F913F912F910F900FBE0F901F90A0
:1006400018951F920F920FB60F9211242F933F937C
:100650004F935F936F937F938F939F93AF93BF93CA
:10066000EF93FF93E0910001F09101010995FF9153
:10067000EF91BF91AF919F918F917F916F915F911A
:100680004F913F912F910F900FBE0F901F90189593
:10069000CF93DF9300D000D000D0CDB7DEB77894F1
:1006A00084B5826084BD84B5816084BD85B5826077
:1006B00085BD85B5816085BD80916E008160809328
:1006C0006E00109281008091810082608093810091
:1006D00080918100816080938100809180008160A1
:1006E000809380008091B10084608093B1008091FC
:1006F000B00081608093B00080917A008460809324
:100700007A0080917A00826080937A0080917A00EA
:10071000816080937A0080917A00806880937A006B
:100720001092C10062E084E00E941B018FE0809380
:100730003C0161E08AE00E941B0160E08AE00E94C7
:10074000ED0061E08BE00E941B0160E08BE00E9405
:10075000ED0061E08CE00E941B0160E08CE00E94F3
:10076000ED0090E080E00E942107082F8093240193
:1007700081E090E00E942107182F8093230182E0FE
:1007800090E00E942107002309F4A7C00D3308F070
:100790000CE300932401112309F4A1C0103108F0E7
:1007A0001FE010932301882309F49BC0803108F0D7
:1007B0008FE08093220162E370E080E090E00E948D
:1007C0001A0280913001823008F08DC0F89485E2E1
:1007D00091E00E944E0260912C0170912D01809158
:1007E0002E0190912F01789422E030E040E050E01B
:1007F0000E944B07209304013093050140930601AA
:10080000509307012FB7F8948091320190913301F2
:10081000A0913401B09135012FBF80931E019093B8
:100820001F01A0932001B09321013AE0A32EB12C27
:1008300006E010E48BE5982E332433949FE0292EB4
:100840002FE4822E80913001823008F04EC0F8945F
:1008500085E291E00E944E0260912C0170912D0181
:1008600080912E0190912F01789422E030E040E0B9
:1008700050E00E944B0769017A0184E00E94C400A5
:100880009E838D838FB7F89440903201509033014E
:1008900060903401709035018FBF909108019130C4
:1008A00009F044C040910401509105016091060196
:1008B00070910701C416D506E606F70619F1809176
:1008C00024014C155D056E057F050CF04FC08F5F50
:1008D0008C3368F4809324010DC001E05ACF11E0FD
:1008E00060CF81E066CFF89476CFF894B5CF2CE353
:1008F00020932401C0920401D0920501E0920601E8
:10090000F0920701E09124018E2F90E009831A8371
:100910008A309105C4F51B83EF70F0E0E75FFE4F6E
:1009200080818C83CE0101960E94CB0180910801C9
:10093000823009F052C0409104015091050160914C
:10094000060170910701C416D506E606F70689F17F
:10095000809123014C155D056E057F050CF05DC08F
:100960008F5F8F30E0F4809323011BC0C416D5063F
:10097000E606F7060CF0BECF8150823008F0AACF11
:1009800090932401B7CFB5010E9437076F70E62F0F
:10099000F0E0E75FFE4F20812B83FC01BFCF209268
:1009A0002301C0920401D0920501E0920601F09269
:1009B0000701E09123018E2F90E099821A838A30FB
:1009C0009105C4F51B83EF70F0E0E75FFE4F808177
:1009D0008C83CE0101960E94CB0180910801833067
:1009E00009F053C040910401509105016091060146
:1009F00070910701C416D506E606F70689F18091C5
:100A000022014C155D056E057F050CF031C18F5F2D
:100A10008F30E0F4809322011BC0C416D506E60691
:100A2000F7060CF0BECF8150823008F09CCF309298
:100A30002301B7CFB5010E9437076F70E62FF0E0B2
:100A4000E75FFE4F20812B83FC01BFCF2092220164
:100A5000C0920401D0920501E0920601F0920701D4
:100A6000E09122018E2F90E089821A838A309105CD
:100A70000CF00BC11B83EF70F0E0E75FFE4F80814D
:100A80008C83CE0101960E94CB018D819E81892BA2
:100A900009F07EC068EE73E080E090E00E941A02E8
:100AA00084E00E94C40020910801892B09F023C131
:100AB000213011F5F09024018F2D90E009838A30C8
:100AC00091050CF0EEC086E78A838B83EF2DEF70E3
:100AD000F0E0E75FFE4F80818C83CE0101960E949B
:100AE000CB016F2D90E080E00E949C0268EE73E0E5
:100AF00080E090E00E941A0280910801823011F596
:100B0000F09023018F2D90E099828A3091050CF0AE
:100B1000D6C086E78A838B83EF2DEF70F0E0E75F26
:100B2000FE4F80818C83CE0101960E94CB016F2DF8
:100B300081E090E00E949C0268EE73E080E090E02B
:100B40000E941A0280910801833011F5F090220171
:100B50008F2D90E089828A3091050CF0BEC086E727
:100B60008A838B83EF2DEF70F0E0E75FFE4F80818B
:100B70008C83CE0101960E94CB016F2D82E090E024
:100B80000E949C0268EE73E080E090E00E941A02EE
:100B900080911E0190911F01A0912001B09121012F
:100BA000481A590A6A0A7B0A2091240130E0A0E61B
:100BB000BAEE0E946A07641575058605970508F068
:100BC0004FC061E08AE00E94ED008091230128EE91
:100BD00033E0829FB001839F700D1124072E000C1B
:100BE000880B990B0E941A0260E08AE00E94ED00D7
:100BF00061E08CE00E94ED008091220128EE33E05C
:100C0000829FB001839F700D1124072E000C880B6A
:100C1000990B0E941A0260E08CE00E94ED0061E0F6
:100C20008BE00E94ED0068EE73E080E090E00E94AF
:100C30001A0260E08BE00E94ED002FB7F8948091DB
:100C4000320190913301A0913401B09135012FBF51
:100C500080931E0190931F01A0932001B093210166
:100C600080E090E0892B09F4EDCD0E940000E2CDF8
:100C7000C416D506E606F7060CF0EACE815082309F
:100C800008F0C8CE30922201E3CEB5010E943707AA
:100C90006F70E62FF0E0E75FFE4F20812B83FC01B1
:100CA000ECCE26E72A83B5010E9437076F70E62F46
:100CB000F0E0E75FFE4F20812B83FC010ACF26E79F
:100CC0002A83B5010E9437076F70E62FF0E0E75FD7
:100CD000FE4F20812B83FC0122CF26E72A83B5011A
:100CE0000E9437076F70E62FF0E0E75FFE4F20812C
:100CF0002B83FC013ACF213021F482E0809308015C
:100D000041CF223021F493E0909308013BCF233070
:100D100009F03ECF3092080135CFCF93DF9362E0E8
:100D200083E00E941B0162E082E00E941B01E9E86F
:100D3000F0E0E491F0E0EE0FFF1FE458FF4FA591C3
:100D4000B491B0932601A0932501EDE9F0E0449120
:100D500040932901E8E8F0E0E491F0E0EE0FFF1F96
:100D6000E458FF4FC591D491D0932801C093270137
:100D7000ECE9F0E0E491E0932A0110922C0110924A
:100D80002D0110922E0110922F012BE33FE1C9019A
:100D90000197F1F79C91842F892391E009F490E069
:100DA0008881E82309F0926025E231E090932B01DD
:100DB00030931D0120931C0186E992E0909303017A
:100DC0008093020180916900837F84608093690031
:100DD000E99A81E08093300130931B0120931A013E
:100DE00080E992E090930101809300018091690075
:100DF0008C7F816080936900E89A82E08093300163
:100E000087E080933A0186E080933B0184E690E09E
:100E100090933E0180933D0160E087E00E941B01BA
:100E200060E080913B010E941B0160E080913A01EB
:100E30000E94ED0060E080913B01DF91CF910C9426
:100E4000ED00F999FECF92BD81BDF89A992780B542
:100E50000895262FF999FECF1FBA92BD81BD20BDFE
:100E60000FB6F894FA9AF99A0FBE0196089597FB77
:100E7000072E16F4009407D077FD09D00E94790759
:100E800007FC05D03EF4909581959F4F089570958D
:100E900061957F4F0895052E97FB1EF400940E94E4
:100EA000620757FD07D00E948D0707FC03D04EF460
:100EB0000C94620750954095309521953F4F4F4FC8
:100EC0005F4F089590958095709561957F4F8F4FF6
:100ED0009F4F0895A29FB001B39FC001A39F700DC3
:100EE000811D1124911DB29F700D811D1124911D32
:100EF0000895AA1BBB1B51E107C0AA1FBB1FA61761
:100F0000B70710F0A61BB70B881F991F5A95A9F7B2
:100F100080959095BC01CD010895A1E21A2EAA1BDF
:100F2000BB1BFD010DC0AA1FBB1FEE1FFF1FA21799
:100F3000B307E407F50720F0A21BB30BE40BF50B96
:100F4000661F771F881F991F1A9469F7609570951F
:100F5000809590959B01AC01BD01CF010895EE0FE6
:0E0F6000FF1F0590F491E02D0994F894FFCF47
:100F6E004D024D0219FCFFFF013F065B4F666D7D82
:0A0F7E00077F6F777C395E79710000
:00000001FF
